{
  "contractName": "Decentragram",
  "abi": [
    {
      "inputs": [],
      "payable": false,
      "stateMutability": "nonpayable",
      "type": "constructor"
    },
    {
      "anonymous": false,
      "inputs": [
        {
          "indexed": false,
          "internalType": "uint256",
          "name": "id",
          "type": "uint256"
        },
        {
          "indexed": false,
          "internalType": "string",
          "name": "hash",
          "type": "string"
        },
        {
          "indexed": false,
          "internalType": "string",
          "name": "description",
          "type": "string"
        },
        {
          "indexed": false,
          "internalType": "uint256",
          "name": "tipAmount",
          "type": "uint256"
        },
        {
          "indexed": false,
          "internalType": "string",
          "name": "date",
          "type": "string"
        },
        {
          "indexed": false,
          "internalType": "address payable",
          "name": "author",
          "type": "address"
        }
      ],
      "name": "ImageCreated",
      "type": "event"
    },
    {
      "anonymous": false,
      "inputs": [
        {
          "indexed": false,
          "internalType": "uint256",
          "name": "id",
          "type": "uint256"
        },
        {
          "indexed": false,
          "internalType": "string",
          "name": "hash",
          "type": "string"
        },
        {
          "indexed": false,
          "internalType": "string",
          "name": "description",
          "type": "string"
        },
        {
          "indexed": false,
          "internalType": "uint256",
          "name": "tipAmount",
          "type": "uint256"
        },
        {
          "indexed": false,
          "internalType": "address payable",
          "name": "author",
          "type": "address"
        }
      ],
      "name": "ImageTipped",
      "type": "event"
    },
    {
      "constant": true,
      "inputs": [],
      "name": "imageCount",
      "outputs": [
        {
          "internalType": "uint256",
          "name": "",
          "type": "uint256"
        }
      ],
      "payable": false,
      "stateMutability": "view",
      "type": "function"
    },
    {
      "constant": true,
      "inputs": [
        {
          "internalType": "uint256",
          "name": "",
          "type": "uint256"
        }
      ],
      "name": "images",
      "outputs": [
        {
          "internalType": "uint256",
          "name": "id",
          "type": "uint256"
        },
        {
          "internalType": "string",
          "name": "hash",
          "type": "string"
        },
        {
          "internalType": "string",
          "name": "description",
          "type": "string"
        },
        {
          "internalType": "uint256",
          "name": "tipAmount",
          "type": "uint256"
        },
        {
          "internalType": "string",
          "name": "date",
          "type": "string"
        },
        {
          "internalType": "address payable",
          "name": "author",
          "type": "address"
        }
      ],
      "payable": false,
      "stateMutability": "view",
      "type": "function"
    },
    {
      "constant": true,
      "inputs": [],
      "name": "name",
      "outputs": [
        {
          "internalType": "string",
          "name": "",
          "type": "string"
        }
      ],
      "payable": false,
      "stateMutability": "view",
      "type": "function"
    },
    {
      "constant": false,
      "inputs": [
        {
          "internalType": "string",
          "name": "_imgHash",
          "type": "string"
        },
        {
          "internalType": "string",
          "name": "_description",
          "type": "string"
        },
        {
          "internalType": "string",
          "name": "_date",
          "type": "string"
        }
      ],
      "name": "uploadImage",
      "outputs": [],
      "payable": false,
      "stateMutability": "nonpayable",
      "type": "function"
    },
    {
      "constant": false,
      "inputs": [
        {
          "internalType": "uint256",
          "name": "_id",
          "type": "uint256"
        }
      ],
      "name": "tipImageOwner",
      "outputs": [],
      "payable": true,
      "stateMutability": "payable",
      "type": "function"
    }
  ],
  "bytecode": "0x608060405260006001553480156200001657600080fd5b506040518060400160405280600c81526020017f446563656e7472616772616d000000000000000000000000000000000000000081525060009080519060200190620000649291906200006b565b506200011a565b828054600181600116156101000203166002900490600052602060002090601f016020900481019282601f10620000ae57805160ff1916838001178555620000df565b82800160010185558215620000df579182015b82811115620000de578251825591602001919060010190620000c1565b5b509050620000ee9190620000f2565b5090565b6200011791905b8082111562000113576000816000905550600101620000f9565b5090565b90565b61113d806200012a6000396000f3fe60806040526004361061004a5760003560e01c806306fdde031461004f57806384856482146100df5780638567ade8146102ac57806392053b63146102da578063cec23a4714610305575b600080fd5b34801561005b57600080fd5b506100646104fb565b6040518080602001828103825283818151815260200191508051906020019080838360005b838110156100a4578082015181840152602081019050610089565b50505050905090810190601f1680156100d15780820380516001836020036101000a031916815260200191505b509250505060405180910390f35b3480156100eb57600080fd5b506101186004803603602081101561010257600080fd5b8101908080359060200190929190505050610599565b604051808781526020018060200180602001868152602001806020018573ffffffffffffffffffffffffffffffffffffffff1673ffffffffffffffffffffffffffffffffffffffff168152602001848103845289818151815260200191508051906020019080838360005b8381101561019e578082015181840152602081019050610183565b50505050905090810190601f1680156101cb5780820380516001836020036101000a031916815260200191505b50848103835288818151815260200191508051906020019080838360005b838110156102045780820151818401526020810190506101e9565b50505050905090810190601f1680156102315780820380516001836020036101000a031916815260200191505b50848103825286818151815260200191508051906020019080838360005b8381101561026a57808201518184015260208101905061024f565b50505050905090810190601f1680156102975780820380516001836020036101000a031916815260200191505b50995050505050505050505060405180910390f35b6102d8600480360360208110156102c257600080fd5b81019080803590602001909291905050506107bd565b005b3480156102e657600080fd5b506102ef610cd7565b6040518082815260200191505060405180910390f35b34801561031157600080fd5b506104f96004803603606081101561032857600080fd5b810190808035906020019064010000000081111561034557600080fd5b82018360208201111561035757600080fd5b8035906020019184600183028401116401000000008311171561037957600080fd5b91908080601f016020809104026020016040519081016040528093929190818152602001838380828437600081840152601f19601f820116905080830192505050505050509192919290803590602001906401000000008111156103dc57600080fd5b8201836020820111156103ee57600080fd5b8035906020019184600183028401116401000000008311171561041057600080fd5b91908080601f016020809104026020016040519081016040528093929190818152602001838380828437600081840152601f19601f8201169050808301925050505050505091929192908035906020019064010000000081111561047357600080fd5b82018360208201111561048557600080fd5b803590602001918460018302840111640100000000831117156104a757600080fd5b91908080601f016020809104026020016040519081016040528093929190818152602001838380828437600081840152601f19601f820116905080830192505050505050509192919290505050610cdd565b005b60008054600181600116156101000203166002900480601f0160208091040260200160405190810160405280929190818152602001828054600181600116156101000203166002900480156105915780601f1061056657610100808354040283529160200191610591565b820191906000526020600020905b81548152906001019060200180831161057457829003601f168201915b505050505081565b6002602052806000526040600020600091509050806000015490806001018054600181600116156101000203166002900480601f01602080910402602001604051908101604052809291908181526020018280546001816001161561010002031660029004801561064b5780601f106106205761010080835404028352916020019161064b565b820191906000526020600020905b81548152906001019060200180831161062e57829003601f168201915b505050505090806002018054600181600116156101000203166002900480601f0160208091040260200160405190810160405280929190818152602001828054600181600116156101000203166002900480156106e95780601f106106be576101008083540402835291602001916106e9565b820191906000526020600020905b8154815290600101906020018083116106cc57829003601f168201915b505050505090806003015490806004018054600181600116156101000203166002900480601f01602080910402602001604051908101604052809291908181526020018280546001816001161561010002031660029004801561078d5780601f106107625761010080835404028352916020019161078d565b820191906000526020600020905b81548152906001019060200180831161077057829003601f168201915b5050505050908060050160009054906101000a900473ffffffffffffffffffffffffffffffffffffffff16905086565b6000811180156107cf57506001548111155b6107d857600080fd5b6107e0611017565b600260008381526020019081526020016000206040518060c001604052908160008201548152602001600182018054600181600116156101000203166002900480601f0160208091040260200160405190810160405280929190818152602001828054600181600116156101000203166002900480156108a15780601f10610876576101008083540402835291602001916108a1565b820191906000526020600020905b81548152906001019060200180831161088457829003601f168201915b50505050508152602001600282018054600181600116156101000203166002900480601f0160208091040260200160405190810160405280929190818152602001828054600181600116156101000203166002900480156109435780601f1061091857610100808354040283529160200191610943565b820191906000526020600020905b81548152906001019060200180831161092657829003601f168201915b5050505050815260200160038201548152602001600482018054600181600116156101000203166002900480601f0160208091040260200160405190810160405280929190818152602001828054600181600116156101000203166002900480156109ef5780601f106109c4576101008083540402835291602001916109ef565b820191906000526020600020905b8154815290600101906020018083116109d257829003601f168201915b505050505081526020016005820160009054906101000a900473ffffffffffffffffffffffffffffffffffffffff1673ffffffffffffffffffffffffffffffffffffffff1673ffffffffffffffffffffffffffffffffffffffff1681525050905060008160a0015190508073ffffffffffffffffffffffffffffffffffffffff166108fc349081150290604051600060405180830381858888f19350505050158015610a9f573d6000803e3d6000fd5b50348260600151018260600181815250508160026000858152602001908152602001600020600082015181600001556020820151816001019080519060200190610aea929190611063565b506040820151816002019080519060200190610b07929190611063565b50606082015181600301556080820151816004019080519060200190610b2e929190611063565b5060a08201518160050160006101000a81548173ffffffffffffffffffffffffffffffffffffffff021916908373ffffffffffffffffffffffffffffffffffffffff1602179055509050507f1be5317bca8d3f70dc1efe89958be71bff36cdca33fc00a6423e25eb2f1d492f83836020015184604001518560600151856040518086815260200180602001806020018581526020018473ffffffffffffffffffffffffffffffffffffffff1673ffffffffffffffffffffffffffffffffffffffff168152602001838103835287818151815260200191508051906020019080838360005b83811015610c2d578082015181840152602081019050610c12565b50505050905090810190601f168015610c5a5780820380516001836020036101000a031916815260200191505b50838103825286818151815260200191508051906020019080838360005b83811015610c93578082015181840152602081019050610c78565b50505050905090810190601f168015610cc05780820380516001836020036101000a031916815260200191505b5097505050505050505060405180910390a1505050565b60015481565b6000835111610ceb57600080fd5b6000825111610cf957600080fd5b600073ffffffffffffffffffffffffffffffffffffffff163373ffffffffffffffffffffffffffffffffffffffff161415610d3357600080fd5b6001600081548092919060010191905055506040518060c001604052806001548152602001848152602001838152602001600081526020018281526020013373ffffffffffffffffffffffffffffffffffffffff16815250600260006001548152602001908152602001600020600082015181600001556020820151816001019080519060200190610dc6929190611063565b506040820151816002019080519060200190610de3929190611063565b50606082015181600301556080820151816004019080519060200190610e0a929190611063565b5060a08201518160050160006101000a81548173ffffffffffffffffffffffffffffffffffffffff021916908373ffffffffffffffffffffffffffffffffffffffff1602179055509050507f4fb219221ad28bbbeae0d93e302acf97f858714e2240a2ef8eaf4ef675c09bb6600154848460008533604051808781526020018060200180602001868152602001806020018573ffffffffffffffffffffffffffffffffffffffff1673ffffffffffffffffffffffffffffffffffffffff168152602001848103845289818151815260200191508051906020019080838360005b83811015610f05578082015181840152602081019050610eea565b50505050905090810190601f168015610f325780820380516001836020036101000a031916815260200191505b50848103835288818151815260200191508051906020019080838360005b83811015610f6b578082015181840152602081019050610f50565b50505050905090810190601f168015610f985780820380516001836020036101000a031916815260200191505b50848103825286818151815260200191508051906020019080838360005b83811015610fd1578082015181840152602081019050610fb6565b50505050905090810190601f168015610ffe5780820380516001836020036101000a031916815260200191505b50995050505050505050505060405180910390a1505050565b6040518060c001604052806000815260200160608152602001606081526020016000815260200160608152602001600073ffffffffffffffffffffffffffffffffffffffff1681525090565b828054600181600116156101000203166002900490600052602060002090601f016020900481019282601f106110a457805160ff19168380011785556110d2565b828001600101855582156110d2579182015b828111156110d15782518255916020019190600101906110b6565b5b5090506110df91906110e3565b5090565b61110591905b808211156111015760008160009055506001016110e9565b5090565b9056fea265627a7a72315820baa6886cf2b9d2667c326da34b5e91855d80d0a0e357c50e4d1ccaad1469c8b564736f6c63430005100032",
  "source": "pragma solidity ^0.5.0;\n\ncontract Decentragram {\n  string public name;\n  uint public imageCount = 0;\n  mapping(uint => Image) public images;\n\n  struct Image {\n    uint id;\n    string hash;\n    string description;\n    uint tipAmount;\n    string date;\n    address payable author;\n\n  }\n\n  event ImageCreated(\n    uint id,\n    string hash,\n    string description,\n    uint tipAmount,\n    string date,\n    address payable author\n  );\n\n  event ImageTipped(\n    uint id,\n    string hash,\n    string description,\n    uint tipAmount,\n    address payable author\n  );\n\n  constructor() public {\n    name = \"Decentragram\";\n  }\n\n  function uploadImage(string memory _imgHash, string memory _description,string memory _date) public {\n    // Make sure the image hash exists\n    require(bytes(_imgHash).length > 0);\n    // Make sure image description exists\n    require(bytes(_description).length > 0);\n    // Make sure uploader address exists\n    require(msg.sender!=address(0));\n\n    // Increment image id\n    imageCount ++;\n\n    // Add Image to the contract\n    images[imageCount] = Image(imageCount, _imgHash, _description, 0,_date, msg.sender);\n    // Trigger an event\n    emit ImageCreated(imageCount, _imgHash, _description, 0,_date, msg.sender);\n  }\n\n  function tipImageOwner(uint _id) public payable {\n    // Make sure the id is valid\n    require(_id > 0 && _id <= imageCount);\n    // Fetch the image\n    Image memory _image = images[_id];\n    // Fetch the author\n    address payable _author = _image.author;\n    // Pay the author by sending them Ether\n    address(_author).transfer(msg.value);\n    // Increment the tip amount\n    _image.tipAmount = _image.tipAmount + msg.value;\n    // Update the image\n    images[_id] = _image;\n    // Trigger an event\n    emit ImageTipped(_id, _image.hash, _image.description, _image.tipAmount, _author);\n  }\n}\n",
  "sourcePath": "C:/Users/Akash/Downloads/DecentHealth-master/src/contracts/Decentragram.sol",
  "compiler": {
    "name": "solc",
    "version": "0.5.16+commit.9c3226ce.Emscripten.clang"
  },
  "schemaVersion": "3.2.3",
  "updatedAt": "2021-04-01T04:04:56.067Z",
  "networkType": "ethereum",
  "devdoc": {
    "methods": {}
  },
  "userdoc": {
    "methods": {}
  }
}